:020000041000EA
:10000000002008205D0100101B010010A125011037
:100010001101001011010010110100101101001058
:100020001901001019010010190100101F01001022
:1000300025250110190100102101001023010010D5
:100040001101001011010010110100101101001028
:100050001101001011010010110100101101001018
:100060001101001011010010110100101101001008
:1000700011010010110100101101001011010010F8
:1000800011010010110100101101001011010010E8
:1000900011010010110100101101001011010010D8
:1000A00011010010110100101101001011010010C8
:1000B00011010010110100101101001011010010B8
:1000C00011010010110100101101001011010010A8
:1000D0001101001011010010110100101101001098
:1000E0001101001011010010110100101101001088
:1000F0001101001011010010110100101101001078
:100100001101001011010010110100101101001067
:10011000EFF30580103800BE00BE00BE00BE00BE7A
:1001200000BE00BEF2EB887180DD0110A8DD011079
:10013000A001001090A31AE7D3DEFFFF42012110B7
:10014000FF010000000F0200793512AB4FF00000F4
:100150001E49086006C881F3088810474FF05040D8
:10016000006810B14FF00000F2E70DA40ECC00299A
:1001700002D000F012F8F9E71549164A002000E015
:1001800001C19142FCD11449884714498847144958
:10019000884700BEFDE701C901C29A42FBD3704700
:1001A000A8DD01108801002018340020381002104A
:1001B000000008200000082038100210001008205D
:1001C00000100820000000007047000008ED00E06B
:1001D00018340020145D00208953001039050010E8
:1001E0004D530010F8B500BF0348044B834202D0C2
:1001F000034B03B11847704718340020183400200F
:1002000000000000064B0749C91A891048BF013198
:10021000491003D0044B0BB101481847704700BF89
:1002200018340020183400200000000010B5064CDF
:10023000237843B9FFF7D8FF044B13B10448AFF359
:1002400000800123237010BDC83C00200000000086
:10025000F8A8011008B5044B1BB104490448AFF3DA
:100260000080BDE80840CDE700000000CC3C002045
:10027000F8A801100120014B18707047055D00209F
:100280002DE9F04FA9B00EF01DF918B9914805F00D
:1002900029FAFEE79049012290480BF06BFC904C44
:1002A0000146207018B18F4805F09EFAFEE78E4D8A
:1002B0000A2228468D490BF007FD2070E0B98C49D1
:1002C00028460DF0BDF9DFF8648200280146C8F821
:1002D000000016DB28460CF043FD01462070B8B93B
:1002E0008249012228460BF0EFFC0146207098B1AC
:1002F000804805F079FAFEE701467E4805F074FA79
:10030000FEE77D4805F070FA28460CF029FDFEE76F
:100310007A4805F069FAFEE77449794805F064FA0D
:10032000784805F0DFF9784E02E0304605F05CFAD7
:100330002A46642130460CF09FFF0028F5D173480F
:1003400005F0D0F968480CF00BFD0146207018B19B
:100350006A4805F049FAFEE764490A2262480BF050
:10036000B3FC0146207018B1624805F03DFAFEE783
:1003700067495D480DF064F903465B48C8F80030F2
:100380000CF0EEFC0146207018B15C4805F02CFA28
:10039000FEE7604807F088FD5F4812F0D9FD01468E
:1003A0005E4805F021FADFF888B15D4F5D4EDFF859
:1003B00084A1DFF8349107F07FFD43F239039842BE
:1003C000F9D101231222484648498BF80030DAF867
:1003D00028300BF079FC2070002868D1D5E904237F
:1003E00048460CF0F1FCB36BC8F800002193736B26
:1003F0004846209396F830304B491C9396F82030AD
:100400001893D6E91423CDE92623D6E91223CDE9A2
:100410002423D6E91023CDE92223D6E90A23CDE906
:100420001E23D6E90623CDE91A23D6E90223CDE916
:100430001623D6E90423CDE91423D7E91623CDE901
:100440001223D7E91423CDE91023D7E91223CDE9EC
:100450000E23D7E91023CDE90C23D7E90E23CDE9EC
:100460000A23D7E90C23CDE90823D7E90A23CDE9EC
:100470000623D7E90823CDE90423D7E90423CDE9EE
:100480000223D7E90223CDE90023D7E900230DF0A9
:10049000D7F80028C8F8000013DB48460CF060FCD1
:1004A000207048B9DAF828308BF8000083E701465D
:1004B000104805F099F9FEE70146104805F094F957
:1004C000FEE701460C4805F08FF907480CF048FCA0
:1004D000FEE700BFF8A8011020A90110E0390020B4
:1004E000065D002024A90110803700207828002014
:1004F00074A9011050A901107CA90110A4A9011030
:10050000C8A90110E4A90110E4550020ECA90110CC
:10051000F4A901109F8601000000084000AB011003
:10052000503C0020A035002014AB0110C85C002016
:10053000095D002000000B402DE9F04F01222DED58
:10054000028B1146D5B0D24801F0F0FED14805F03B
:100550004BF905F083F8D04800F02AFBCF4AD04988
:10056000D04800F035FCCD4ACF49CE4800F030FCF1
:100570000321082001F030FB0321092001F02CFBAE
:1005800003210E2001F028FB03210F2001F024FBA2
:1005900000220121082001F03DFB00220121092059
:1005A00001F038FB002201210E2001F033FB002274
:1005B00001210F2001F02EFB4FF4FA7002F0A2FA95
:1005C000BA4805F08FF8192001F056FB19250124CF
:1005D00044EC4450B64805F085F8B64B1B7843EC24
:1005E00040504FF4FA7002F08DFA0323CDE9014434
:1005F0000093B14808AB07AA06A912F023FB002814
:1006000000F08D82DDE906540027032201232146F4
:1006100028460097089E12F07BFA05F12F4303F558
:1006200060031B0D991D0320C9B201F0D5FA3A46AB
:100630000121032001F0EEFA4FF480334FF4C03271
:1006400014931792F30106F1080243EA023323F0F0
:10065000F85343F040731593984B0520169302F01E
:1006600069FD07EE900A9FED966AF8EE677ADFED76
:10067000956A87EE867A37EE267AFCEEC77A17EE11
:10068000903A9BB2002B00F0488207EE903AF8EEC9
:10069000677ADFED8D6A77EE677A67EEA67AFCEE11
:1006A000E77ACDED057A9DF814201B0443EA022376
:1006B00032460FF2CC1BDBE900AB0126214628466F
:1006C000149314AB12F06AFA2A6806FA04F313437F
:1006D0002B6075497D4800F079FE7D4805F002F8F1
:1006E000642002F00FFA7B4804F0FCFF6C497A4862
:1006F00000F0FCFF794804F0F5FF642002F002FAF4
:10070000774804F0EFFF642002F0FCF908217548F7
:1007100005F06AF80821744805F066F8602173480E
:1007200005F062F800220023714805F05DF8002210
:100730000023704805F058F808234FF416526E490C
:1007400000966E4800F054FC0446002540F6B83090
:1007500002F0D8F9214642F6E062694805F044F813
:1007600002F05AF8674B684ACDE901530092002322
:10077000664A02F03BFA304602F0E2FC0446644866
:1007800004F0B0FF2146634805F02EF8604804F0FD
:10079000A9FF614807F0E2FB07F08EFB5F49604864
:1007A00005F022F89FED388B3B4EDFF890815D4FCE
:1007B0000024204602F0E2FF8DED028B02460B463C
:1007C0003046CDE900AB00F087FA02460B463046D2
:1007D000294600F0B1FA2946404605F005F82146C1
:1007E000384605F001F80134322002F08BF9142C60
:1007F000DFD1204602F0C2FF8DED028B02460B4690
:100800003046CDE900AB00F067FA02460B463046B1
:10081000294600F091FA2946404604F0E5FF2146BA
:10082000384604F0E1FF322002F06CF9013CE0D2DE
:100830004FF4FA70013502F065F9042DB8D13A4849
:1008400004F050FF394CD4E8AF3FDA0740F176812D
:10085000374CD4E8AF3FDB0740F164810B254FF400
:10086000E1340323CDE900450022324909A801F013
:100870004BF8DFF8CCA0304C64E000BFAFF3008051
:100880009A9999999999E13F666666666666EE3F20
:10089000505100206CAB0110005B0020801A060054
:1008A000882C0020BC5A0020802C002074AB011042
:1008B0007CAB011080280020B4B8011000000C802F
:1008C000000061490000003B00008043144000200C
:1008D00088AB011098AB0110284100209CAB01109F
:1008E000ACAB0110B8AB0110C8AB0110D8AB011014
:1008F000E8AB011000AC011000000740E05C0020F4
:100900001CAC0110B03C002075020010A086010054
:1009100048AC011050AC0110810200109F8601000C
:1009200064AC011080AC011090AC01103441002087
:100930003041002000002050005D002070AC01100C
:100940000B5D0020834D844FDFF860B211ABD3E81C
:100950008F3FDBB2002B48D19AF800307BB14FF0CB
:1009600000037E4A8AF80030137883F00103137085
:10097000192243EC40207A4B9B78472B5AD09BF8A6
:100980000030002BE2D0774B9A6A9B6A02F0D8F9CC
:10099000754BC3E9000140330093083BA3F1080203
:1009A0007249734800F00EFE724B7049A3F10802C1
:1009B00002F1100600966E4800F04EFEA6F15003BC
:1009C000403E03F108026C4900966C4800F01CFFA1
:1009D00043F2390007F068FA00238BF8003011ABBE
:1009E000D3E88F3FDBB2002BB6D0002211ABC3E8B7
:1009F0008F2F91464FF4807214A909A801F08CF84A
:100A00000028A9D094F800802B7808F1010808F09C
:100A10000F089845EED02078FF2214A907EB00209C
:100A200013F0DAFA237884F8008007EB032383F8C5
:100A3000FF90DFE74A4BDB78472BA0D1484B1B796F
:100A4000412B9CD14E4813F061FB4E4AC2E9040190
:100A50004D48164613F05AFB00224C4B02F032FE72
:100A60008946804602F0AEFE02F088FE02460B4642
:100A7000404649469046994602F0EAFD0022444B22
:100A800002F020FE42464B4602F0CEFD344BC6E952
:100A9000060193F82D303F4886F8203013F036FBDE
:100AA00002460B46C6E90A230022384B02F00AFE32
:100AB0008946804602F086FE02F060FE02460B4642
:100AC000404649469046994602F0C2FD0022304B0E
:100AD00002F0F8FD42464B4602F0A6FD204BC6E967
:100AE000060193F84B302C4886F8303015F078FE2C
:100AF00070632A4815F074FEB063294813F006FBB2
:100B0000C6E91001274813F001FBC6E91201264887
:100B100013F0FCFAC6E9140131E71A46C5E502F004
:100B20003DFC6FE5204612F047FA00283FF496AEF0
:100B30000C4B20469B6A12F05BFA8FE6204612F0BF
:100B40003BFA00283FF484AE064B20469B6A12F025
:100B50004FFA7DE6FF5C00205041002080280020F5
:100B6000045B002000000B40503C0020802C002043
:100B700014400020A03C0020882C002028410020A8
:100B8000135B0020A0350020225B002000005940AC
:100B900000004E40405B00205E5B00206D5B00204B
:100BA0007C5B00208B5B0020A95B0020055D0020A2
:100BB0002DE9F8430421022001F00EF8042103205E
:100BC00001F00AF80421062001F006F804210720AC
:100BD00001F002F89FED387B47F230584FF00009E2
:100BE000374E002547F23051A022012386ED007BCD
:100BF00086ED067BC6E90289C6E90889314C324F89
:100C00006561E56125626162A26163616561E561BB
:100C100025626162A2616361E5636564A564E16464
:100C20002264E363E5636564A564E1642264E363CD
:100C3000236AA02283F4AF4383F064039BB23B6238
:100C400047F23053C6E90423C6E90A23D4F82080CA
:100C5000706902F0A5FD00221C4B02F00DFD02F0B0
:100C6000C3FDDFF86C9088EA004808EA09003862A2
:100C7000306A02F095FD0022144B02F0FDFC02F0F8
:100C8000B3FDD4F8488088EA00081FFA88F0B864F9
:100C9000F06A02F085FD00220C4B02F0EDFC02F040
:100CA000A3FD0346A46C284684EA034404EA09042D
:100CB000BC64BDE8F88300BF00000000A000000095
:100CC0001834002000800A4000900A400000E83FED
:100CD0000000FFFF00000000F8B5DDE906671046E0
:100CE00019460022124B02F09FFC0022114B02F029
:100CF000C3FC0DA3D3E9002302F0BEFC3246044638
:100D00000D46DDE908013B4602F0A2FC02460B4617
:100D10002046294602F0B0FC32463B4602F084FCF5
:100D2000F8BD00BFAFF300807B14AE47E17A843F8B
:100D3000000059400000E03F70B514461D460E46C5
:100D40000022204629461D4B02F0C0FD30B900228A
:100D500000232046294602F07DFD08B1012070BD28
:100D6000174B06EB4601174A03EB8103986852F8CC
:100D7000266002F015FD22462B4602F07DFC02F0B3
:100D800033FD73081F2E8ABF03F0030303F007032C
:100D900008330D4A03EB83039B001A44F30758BF43
:100DA0004FF6FF71136880B244BF00040749434007
:100DB00002F580520B400020136070BD0000F03F30
:100DC00018340020D0B801100C800A400000FFFF4A
:100DD00010B508461146144607F0BEF9001B18BFAF
:100DE0004FF0FF3010BD00BF10B500249C4684B00A
:100DF0009DF8183008468DF80D301146022303AADD
:100E000000948DF80CC007F0CDF9204604B010BD59
:100E10002DE9F04383B002AF7C6A0D4604F108006F
:100E200020F00700ADEB000D164604F101090DF1AD
:100E300008088DF808302CB12246396A0DF10900F6
:100E400015F0C0FD00244B4642463146284600942A
:100E500007F0A8F920460437BD46BDE8F08300BF7F
:100E600070B51E4684B0154601200C468DF80F6003
:100E7000002603460DF10F0200900846294607F0B0
:100E800091F9DDE9082329462046009607F092F9FA
:100E9000304604B070BD00BF4E4A9369D90600F1D8
:100EA00097802DE9F04F0026B046DFF838B1DFF823
:100EB00038A1DFF838919BF800409AF800E099F8E3
:100EC00000C0936913F01003FBD11068C0B2002C6E
:100ED00041D0242868D02C2871D00A286BD0254610
:100EE0001F463D4ACEEB0E110A4402F80C000CF1ED
:100EF000010C5FFA8CFC37498A69D20619D48A69D9
:100F000012F01002FBD10868C0B2242845D02C286A
:100F10003BD00A2836D0304DCEEB0E122A4402F8D0
:100F20000C008A690CF1010CD20625465FFA8CFC94
:100F3000E5D52A4A214610703C46C5B90BB18AF85E
:100F400000E00CB1264B1E70B8F1000F01D08BF8F9
:100F50000010BDE8F08F242810D021469369DB06ED
:100F60000AD500251D4A2B461070002DE6D089F8C1
:100F700000C0002BE3D1E4E70C46A2E74FF00108E4
:100F80004146EBE727462646B6E70EF1010E9446AA
:100F9000254623465FFA8EFEAEE794462546234655
:100FA000274696461646A7E79C46254623462746EB
:100FB000E64666469FE71D46274626469BE79C4633
:100FC0000EF1010E2546234667465FFA8EFE92E734
:100FD000704700BF00000740045B0020105D002048
:100FE0000B5D00200E5D00200C5D00200D5D0020DB
:100FF0002DE9F041AA4894B081420C4615461E46A0
:101000001A9F00F0A081A74B994240F095811146AC
:10101000204601F0F3FE0221042000F0DDFD022154
:10102000052000F0D9FD2946204601F069FF216B1B
:101030009D4801F44041016300233A463146204671
:1010400001F0ACFF2046002101F0E0FF2220012149
:1010500000F07CFF50222346924EA263A61BB6FAF4
:1010600086F653F8342FDFF858C202F0380203F541
:10107000805308AD1A60BCE80F000FC5BCE80F0034
:101080000FC59CE80F00894F07C5760937F916E0B0
:101090002B80BEF1240F00F0F880A3699A06FCD4DF
:1010A0002420206004F0DCFA0DF11F050DF14C083E
:1010B00015F8010FA3699B06FCD4206004F0D0FA58
:1010C0004545F5D1A3699906FCD42A20206004F097
:1010D000C7FAA3699A06FCD43220206004F0C0FA53
:1010E000A56915F02005FBD13920206004F0B8FA7D
:1010F0000D2210466E49002D40F0E48037F916307D
:10110000934200F0E780A3699B06FCD4A2F10D0591
:10111000B5FA85F5226011F8012F6D09002AEAD190
:10112000644804F0DFFA4FF4FA7001F0EBFC37F991
:1011300016C0614B01ADBCF1240F93E8070085E8B0
:10114000070000F0CC80A3699A06FCD4242020601C
:1011500004F086FA0DF10F0815F8010BA3699B0640
:10116000FCD4206004F07CFA4545F5D1A3699906CA
:10117000FCD42A20206004F073FAA3699A06FCD4F8
:101180003220206004F06CFAA56915F02005FBD12F
:101190004320206004F064FA0D2210464449002DDB
:1011A00040F0A78037F91630934200F0AA80A36977
:1011B0009B06FCD4A2F10D05B5FA85F5226011F865
:1011C000012F6D09002AEAD13A4804F08BFA4FF456
:1011D000FA7001F097FC394B04AD0FCB07C537F916
:1011E00016C02B80BCF1240F00F09080A3699A06F2
:1011F000FCD42420206004F033FA04AD0DF11D0866
:1012000015F8010BA3699B06FCD4206004F028FAB2
:101210004545F5D1A3699906FCD42A20206004F045
:101220001FFAA3699A06FCD43220206004F018FA51
:10123000A56915F02005FBD13720206004F010FAD5
:101240000D2210461A49002D6AD137F91630934203
:101250006DD0A3699B06FCD4A2F10D05B5FA85F506
:10126000226011F8012F6D09002AECD1114804F019
:1012700039FA4FF4FA7001F045FC4FF4164120465C
:1012800014B0BDE8F04101F03BBEA3699906FCD45F
:101290000D232360A3699A063FF5FFAE00E700BF68
:1012A000000007400080074000900740E45C0020F9
:1012B0004CB10110B8AC0110BCAC0110C8AC0110AD
:1012C000D8AC0110A3699B067FF520AFA3699B06EC
:1012D000F8D41BE7A3699B06FCD4206013E7A3693D
:1012E0009906FCD40D232360A3699A063FF52BAF22
:1012F0002CE7A3699B067FF55DAFA3699B06F8D435
:1013000058E7A3699B06FCD4206050E7A3699906BF
:10131000FCD40D232360A3699A063FF567AF68E705
:10132000A3699B0698D5A3699B06F9D494E7A369A2
:101330009B06FCD420608CE7154804F055FA012088
:1013400014B0BDE8F0811146204601F057FD02219E
:10135000002000F041FC0221012000F03DFC294664
:10136000204601F0CDFD216B0A4801F440410023E5
:101370003A4601633146204601F010FE0021204626
:1013800001F044FE2120044900F022FE21205EE607
:10139000A4AC011000100740990E00104FF0000C93
:1013A00010B40524074B084A03F10801196083F8BB
:1013B0000DC092E80300986019735C605DF8044BFF
:1013C000704700BF3841002008AD01102DE9F04101
:1013D0000126002384B00DF10F0528226C480095EA
:1013E00001960C468DF80F30FFF73AFD9DF80F106F
:1013F000684804F0F9F99DF80F302822A02B15BF9A
:101400000B2702274FF014084FF00B0833462146F4
:10141000CDE900565E48FFF723FD9DF80F105E48AA
:1014200004F0E2F99DF80F1002232822FB2918BFCF
:101430004746CDE9005621465548FFF711FD57486C
:101440009DF80F1004F0D0F99DF80F30322B4FF0BB
:10145000030300F0848021462822CDE900564C4841
:10146000FFF7FEFC4E489DF80F1004F0BDF94D4803
:1014700004F038F942F2107001F044FB0027012615
:101480000A2004F0EDF8484804F02CF921463E23E8
:10149000282200973E48FFF7A7FC3E23282221463A
:1014A000CDE900563A48FFF7DBFC9DF80F103F48A6
:1014B00004F09AF921463D23282200973448FFF78B
:1014C00093FC142001F01EFB3D2328222146CDE988
:1014D00000562F48FFF7C4FC9DF80F10344804F065
:1014E00083F90C213D232822009129482146FFF74A
:1014F0007BFC0A2001F006FB3D2328222146CDE992
:1015000000562348FFF7ACFC9DF80F10294804F063
:101510006BF93B2328222146CDE900561C48FFF7F2
:101520009FFC9DF80F10244804F05EF980213B23B6
:101530000091282221461648FFF756FC3B2328221B
:101540002146CDE900561248FFF78AFC9DF80F109E
:101550001A4804F049F9384604B0BDE8F081282261
:101560002146CDE900560A48FFF77AFC0C489DF861
:101570000F1004F039F99DF80F300F2B7FF477AF7F
:10158000022F7FF474AF0E4804F0ACF876E700BF8A
:10159000C05A002010AD011028AD01104CAD011053
:1015A0006CAD01108CAD0110A8AD0110E0AD0110C3
:1015B00000AE01102CAE011054AE011080AE01102F
:1015C00098AD011000202DE9F0470E46924699464D
:1015D00008244FF0010884B01D4F02ADADF80C0097
:1015E000029023460134CDE900582822314638467E
:1015F000E4B2FFF735FC0E2C05F10105F1D1BDF980
:10160000080002F0BBF80022124B02F05BF8BDF9B3
:101610000A50CAE90001284602F0B0F800220D4B3A
:1016200002F050F802460B46BDF90C40C9E9002310
:10163000204602F0A3F80022064B02F043F80246CF
:101640000B4600200C99C1E9002304B0BDE8F087E7
:10165000C05A00200000594000202DE9F0470E46F6
:10166000924699460E244FF0010884B01D4F02ADFA
:10167000ADF80C00029023460134CDE90058282231
:1016800031463846E4B2FFF7EBFB142C05F10105B7
:10169000F1D1BDF9080002F071F80022124B01F0FF
:1016A000EBFFBDF90A50CAE90001284602F066F8CE
:1016B00000220D4B01F0E0FF02460B46BDF90C4045
:1016C000C9E90023204602F059F80022064B01F038
:1016D000D3FF02460B4600200C99C1E9002304B059
:1016E000BDE8F087C05A00200000B03F2DE9F0416E
:1016F00040F201134FF000080C46022584B03B4E27
:101700006420ADF8083003AFADF80C8001F0FAF9B1
:10171000374803F0E7FF43462146CDE900754022F4
:101720003046ADF80C80FFF773FB4FF4FE622146A4
:101730000097ADF80C2002AF0123402230460195FE
:10174000FFF766FB4346214640223046CDE900754F
:10175000FFF786FBBDF808309DF809205BBA9DF8BD
:1017600008109BB2234804F03FF821460123402291
:101770003046CDE90075FFF773FBBDF808309DF8E2
:1017800009205BBA9DF808109BB21B4804F02CF8A6
:10179000642001F0B7F921463E2340223046CDE9CE
:1017A0000075FFF75DFBBDF808309DF809205BBAB6
:1017B0009DF808109BB2114804F016F821463F230B
:1017C00040223046CDE90075FFF74AFBBDF80830EE
:1017D0009DF809205BBA9DF808109BB2084804F0F8
:1017E00003F8404604B0BDE8F08100BFC45A0020B1
:1017F00098AB0110B4AE0110D8AE011000AF0110CB
:1018000024AF0110000000002DE9F0474FF0030A5B
:10181000002484B02C4E03AF904699464022009796
:1018200005233046CDF804A00D46ADF80C408DF8E8
:101830000E40ADF80840FFF713FB9DF80D009DF832
:101840000C30000240EA03409DF80E3018430009B6
:1018500001F094FF18A3D3E9002301F00DFF40220B
:10186000C9E9000107232946CDE9007A3046FFF790
:10187000F7FA9DF80D009DF80C30000240EA034095
:101880009DF80E3002271843000901F077FF0CA3E2
:10189000D3E9002301F0F0FE02ABC8E900014022C9
:1018A0000093294630460B230197FFF7D9FA2046CB
:1018B00004B0BDE8F08700BF00000000006A684087
:1018C0000000000000886340C45A002001207047D7
:1018D000024B00280CBF18460020704788280020C3
:1018E000034B1B681BB101222033C3E88F2F7047C5
:1018F00064510020034B1B681BB101222033C3E855
:101900008F2F7047685100202DE9F04F89B09DF866
:101910004C5000270F2D28BF0F25082D0E4638BF2D
:10192000082501210446C0E90123129B0660C3601B
:10193000C76180F82070476280F8287001FA05F0CE
:10194000431E636102F044F9A061002800F0C480E6
:101950003046674911F046F84FF0000B01238046EE
:10196000D4F8009084F82830CDF800B0D4E901769E
:10197000484632463946C4F82480D4F80CA011F009
:10198000C7F809F12F4101F56001090D0631304614
:10199000C9B200F021F90123304619465A4600F039
:1019A00039F94FF4803308F1080204934FEAC81361
:1019B00043EA0233320602F0F85223F0F85313439D
:1019C0000593F6034B4B052006F4782606930796FD
:1019D00001F0B0FB4FEACA0A07EE90AA06EE900AA1
:1019E000B8EE677AF8EE666A9FED436AC6EE877ACC
:1019F00077EE867ABCEEE77A17EE103A9AB2002AB2
:101A000068D007EE102AB8EE477ADFED3C6A77EE31
:101A1000C77A67EEA67AFCEEE77ACDED037A9DF8F9
:101A20000C301B024FF0010A43EA0243394642469A
:101A30004846049304AB11F0B1F8D9F800300AFA23
:101A400007F71F43C9F80070504610F09FFFD4E914
:101A500000614FF0FF382A4B06F12F4202F5600279
:101A6000120D01F1040903EA403309EBC20943EA0C
:101A70000523DFF898E043EA4943A26906EB8107B2
:101A80002061C9B243F48253800100F1A04006F501
:101A9000055C0AFA01F1233743EA0A037645076039
:101AA0004260C0F80880C360CCF8301018D0154BE5
:101AB000112015491C6000F08BFA144B206801219D
:101AC000984214BF11200F2000F040FA204609B0C0
:101AD000BDE8F08F1346A5E701F060FC266837E704
:101AE0000B4B0F200B491C6000F072FAE5E700BFBA
:101AF000E0B8011000000C800000003B00008043B3
:101B0000FDFF01FC68510020F51800100000205076
:101B100064510020E11800100AB90020704770B528
:101B2000D0E9043586469B0103F1A04358680EF1C5
:101B30001C0628403368984249D0DEF8184014F853
:101B400003C00133BCF10A0F03EA050302D0984237
:101B5000F5D13CE0D6F800C0581EA0EB0C0010EA0E
:101B6000050C30D03068265C232E2CD10130BCF11E
:101B7000010F00EA05002CD0012A2AD0023A8E1E5D
:101B80000A4466444D1E04E094420BD02546DEF81C
:101B90001840245C01306C70DEF8144020406C1C4E
:101BA000B442F1D1C1F102022A44501E0D5C0C185E
:101BB0000D2D01D010468C18002222700EF11C024F
:101BC000C2E8AF3F70BD0EF11C02C2E8AF3F00207B
:101BD00070BD0C460020EFE710B44FF480740C4B3E
:101BE00053F8202003EB8003C00082F0400200F194
:101BF000804003F5805C02F0C00200F5203003F560
:101C00004053CCF8002041601C605DF8044B7047E5
:101C10000480034010B4084CC90041EA820154F822
:101C2000202004EB8003514003F5805301F00C01A8
:101C30005DF8044B1960704704800340054B53F86E
:101C4000202003EB8003514001F0010103F5805394
:101C50001960704704800340064B53F8202003EBC3
:101C6000800382EA011202F0300203F580531A6009
:101C7000704700BF0480034030B44FF0000343ECD2
:101C8000440043EC400005254FF480740B4BC20028
:101C900053F8201003EB800081F0400102F18043F3
:101CA00003F5203301F0C00200F5805100F54050EB
:101CB0000A605D60046030BC704700BF0480034070
:101CC00010B44FF480711F240C4B53F8202003EB09
:101CD0008003C00082F0400200F1804003F5805C88
:101CE00002F0C00200F5203003F54053CCF800208C
:101CF00044605DF8044B1960704700BF04800340E6
:101D00000FB400B583B0049C074803F0EBFC3CB172
:101D100005A92046019103F0BDFA044803F0E2FC56
:101D2000012003F0CFFA00BF48AF011070A90110E5
:101D3000EFF3108072B6064BD3E8CF1F01220029C3
:101D4000FAD1C3E8412F0029F6D1BFF35F8F704766
:101D5000935100200023034AC2E88F3F80F310888C
:101D6000704700BF9351002070B58646EFF3108591
:101D700072B6124CD4E8CF6F0120002EFAD1C4E81D
:101D8000460F002EF6D1BFF35F8F4FF0010CC8084D
:101D900001F007030CFA03F31EF800C01CEA030667
:101DA00008D14CEA030C0EF800C0C4E88F6F85F32D
:101DB000108870BD1046FFF7A3FF00BF93510020AD
:101DC000F8B5EFF3108572B6234CD4E8CF7F012627
:101DD000002FFAD1C4E8476F002FF6D1BFF35F8F11
:101DE0009A4227D80126D70810F807E002F0070C1E
:101DF00006FA0CFC1EEA0C0F00EBD2070DD125E011
:101E00004FEAD20E10F80EE002F0070C06FA0CFCB6
:101E10001EEA0C0F00EBD20718D001329342EFD22A
:101E20004FF0FF300023C4E88F3F85F310889842BD
:101E300007DBF8BD0023C4E88F3F85F310884FF01F
:101E4000FF300029F5D00698FFF75AFF4EEA0C0E36
:101E5000104687F800E0E5E79351002000B5EFF366
:101E6000108E72B6104BD3E8CFCF0122BCF1000F19
:101E7000F9D1C3E84C2FBCF1000FF4D1BFF35F8F51
:101E800001224FEAD10C01F0070102FA01F110F82A
:101E90000C2022EA010200F80C200022C3E88F2F58
:101EA0008EF310885DF804FB93510020044A1078EB
:101EB000431CDBB2182B28BF10231370704700BFE0
:101EC000B42B002010B5054C82B001461F23182208
:101ED00000940348FFF774FF02B010BD58AF011023
:101EE000505600204FF0E022936843F00053936077
:101EF000704700BF0021044B03F12002C3E88F1F8D
:101F000001339342FAD17047885100204FF0E0230B
:101F10004FF08032C3F80024C3F80424C3F8082427
:101F2000C3F80C24C3F81024C3F81424C3F81824ED
:101F3000C3F81C24C3F82024C3F82424C3F828249D
:101F4000C3F82C24C3F8302462B67047012300F094
:101F50001F029340400941B1800000F1604000F54C
:101F60006140C0F8803103607047024A203042F877
:101F70002030704700E100E00123064A410952F891
:101F8000212000F01F008340134214BF01200020D5
:101F9000704700BF00E100E001224309034900F05F
:101FA0001F008240403341F82320704700E100E0E9
:101FB000054A10309268054B52F82000C01A5F287D
:101FC0008CBF00200120704700ED00E0B82B0020FE
:101FD000F8B50D46EFF3108772B6124ED6E8CF2F44
:101FE0000123002AFAD1C6E8423F002AF6D1BFF306
:101FF0005F8F0D4B00F110049B680C4A53F824309E
:10200000934203D0994201D001F0C8F9064B9B6876
:1020100043F82450BFF35F8F0023C6E88F3F87F358
:102020001088F8BD9151002000ED00E01101001072
:102030002DE9F04F81468B46164683B0EFF31083AF
:1020400072B6DFF8D0A10093DAE8CF1F0123002990
:10205000FAD1CAE8413F0029F6D1BFF35F8F664B42
:1020600093F90040002CC0F2A080644D04EB4407BB
:1020700005EB870898F8061009F110091970604BF4
:10208000BF009B6853F829006300411B5F292FD9CB
:102090005C49884240F0A4801C445B4B02372F44CB
:1020A000043BDB1BC3F34A036FEAC3434FF42141F4
:1020B0006FEAD34325F8241005EB840463804BF6C4
:1020C0000153A380FF2348F00100E671C4F808B073
:1020D000A3714B4B9B6843F82900BFF35F8F00232C
:1020E000CAE88F3F009B83F3108803B0BDE8F08FF0
:1020F00020F0010E9EF80710B1422ED84FF4214374
:10210000EB53414BB91C2944043B04375B1A2F4461
:10211000AEF104013D4CC91BC1F34A012143A8F8AB
:102120000410C3F34A033A492343A8F802304AF69D
:10213000AA2073465B1B5B415843000D88F807607B
:1021400088F80600C8F808B048F00100CEF8001082
:10215000BFE7D179B1422ED996469EF906C00CEB65
:102160004C02BCF1000F05EB8202F2DA4BF6015192
:102170000EF10402A8F10407BF1AC7F34A076FEA79
:10218000C7476FEAD7478EF8064003EB0408204C98
:1021900005EB8803AEF8047045F82840998083F871
:1021A00006C0DE71C3F808B093E701F0F7F8124BF0
:1021B00093F9004059E7724632F8041F490514D4D8
:1021C0004915023102EB410101916FF00701C91B72
:1021D000019F491B3944C1F34A0141F46041C9E7F9
:1021E000019301F0DBF8019B56E701F5FF1101F5C2
:1021F000FF511F31E4E700BF075D0020B82B00202E
:1022000000ED00E011010010182C002000E0FFFF9D
:102210000148804791510020F0B5EFF30585EDB2FC
:10222000EFF3108C72B63249D1E8CF2F0123002A88
:10223000FAD1C1E8423F002AF6D1BFF35F8F2D4E9D
:1022400040F0010EB4684AF6AA2354F825702A4AD1
:102250000446A41A644163431B0D77455BB22BD03F
:1022600092F906409C422CD092F912409C4235D003
:1022700092F91E409C4233D092F92A409C4231D0C0
:1022800092F936409C422FD092F942409C4223D092
:1022900092F94E409C4229D092F95A409C4208BF84
:1022A00007240FD0154A0024157813708571C1E8F2
:1022B0008F4F8CF31088F0BDB268114C42F8254066
:1022C000F0E7002404EB440402EB8402FF24947141
:1022D0004BF601549480E5E70524F3E70124F1E788
:1022E0000224EFE70324EDE70424EBE70624E9E703
:1022F0009151002000ED00E0B82B0020075D002088
:102300001101001010B5074C82B0014605230022D0
:1023100000940548FFF754FD0028A8BFC0F1330022
:1023200002B010BD74AF0110115D002070B50446FD
:102330000E461546FFF7BAFD0146204600F006F8A6
:10234000A680E580BFF35F8F70BD00BF014B0B44DB
:10235000036070478851002070B5104C104DAC429E
:102360000ED2FF26236863B1FFF7A0FD0146204689
:10237000FFF7ECFFA680BFF35F8F0834AC42F1D3C8
:1023800070BDFFF793FD01462046FFF7DFFF267182
:10239000BFF35F8F0834AC42E4D370BDF833002044
:1023A0001834002010B50446FFF780FD0146204692
:1023B000FFF7CCFFFF232371BFF35F8F10BD00BF7A
:1023C00010B504460120FFF77DFD034B0344236055
:1023D000BFF35F8F10BD00BF88510020024B0B443C
:1023E0000360BFF35F8F7047885100200D4B1A6860
:1023F000EFF3108172B6D2E8CFCF0120BCF1000F0D
:10240000F9D1C2E84C0FBCF1000FF4D1BFF35F8FDC
:1024100000221B68C3E88F2F81F3108840BF002083
:1024200000217047D45C00202DE9F04F2DED028B88
:1024300085B0EFF30583DBB2103B9A0818BF012289
:102440004FF0010103F0030018BFAF4DAF4B08BFC1
:10245000AF4D00EB820253F8226001FA00FB05F554
:1024600041539FEDA78B0190C3F804B02EE0B388D1
:10247000180440F19280B379002B40F0DC80B6F96B
:1024800008100029C0F21D81736901EB410103EBC3
:10249000C103D3E90247B7F1FF3F08BFB4F1FF3FE3
:1024A0000DD0019B05EB8301AB6A0A69D21AE31ACE
:1024B000934203D32B6A13EA0B0F00D10C61284619
:1024C00000F036FCA042B941C0F2FB80B6F90830FA
:1024D000C5F83CB0002B0093C9DBD6F8149003EB91
:1024E000430A284609EBCA07D7E9024800F020FC56
:1024F000A04271EB0801BADBB8F1000FC0F2C38053
:10250000D7E90431834A934200F0ED807A88B6F926
:10251000080092B242EA0040984702460B4652EA4F
:10252000030100F0B080002B80F2D180B4EB020EEA
:1025300068EB030839F93A30C7E902E8002B96DB6B
:10254000716903EB430201EBC202D2E90270BE459E
:1025500078EB000C4FEA430289DBB4462CF8083FC5
:102560000BE031F93230A446002B0DDB03EB4300C6
:1025700001EBC0005A00D0E90270BE451A4478EB66
:10258000000001EBC204ECDA29F83A30009BACF809
:102590000030B38818043FF56EAF3369EFF3108253
:1025A00072B6D3E8CF0F01210028FAD1C3E8401F4B
:1025B0000028F6D1BFF35F8F4FF6FF74B088002379
:1025C000316900B2B480C1E88F3F82F3108898422D
:1025D000FFF651AF0746A946746906F1080807EBF4
:1025E000470E04EBCE03D3E90250B6F90830C446D7
:1025F000002B13DBB246009704E034F936309446E2
:10260000002B09DB03EB430604EBC602D2E902719F
:10261000BD4270EB0101F0DA5646009FACF8007045
:1026200034F93E7024F83E30002FD8DAB3794D46A5
:10263000002B3FF424AF0023B371B6F9083006F144
:102640000808591C3DD01946776903E080465A1C9A
:102650003FF417AF03EB430207EBC200B0F802C030
:102660001C461CF4004F9E4637F93230EED08C42A7
:1026700080ED028B05D0A8F80030318927F83210A0
:1026800034817146E3E739F83A3033813369EFF347
:10269000108272B6D3E8CF0F01210028FAD1C3E827
:1026A000401F0028F6D1BFF35F8F7388316929F886
:1026B0003A30009B73800023C1E88F3F82F310887B
:1026C000D5E640BF05B0BDEC028BBDE8F08F2846D3
:1026D000CDE9022300F02CFB029A039B10EB020EC3
:1026E00043EB010826E708460B690291984700284A
:1026F000C9D00299D1E9002311E700BFAFF30080F0
:10270000FFFFFFFFFFFFFFFF00800B40E05A0020AC
:1027100000000B40292400102DE9F84F364C2569A4
:102720002DB1BDE8F84F0A213448FFF70FBEDFF89E
:10273000E4800321404600F0E9FA0326C4F80C8047
:10274000FFF7B4FB4FF0504C2D4B26700344236130
:10275000DCF800300F216370636961801D834FF0E6
:102760000405A3F878504FF00505A3F890504FF0FA
:102770000605A3F8A8504FF007050E214FF6FF728B
:1027800008274FF00A0EA3F8C0504FF001094FF090
:102790000C0C4FF0020B4FF0090A0D204FF00B0507
:1027A000A3F868111749A280A3F808E1A160A3F873
:1027B00048B0A3F8F0A0A3F82051A3F838C1A3F8BB
:1027C0005001A3F83090A3F86060A3F8D8701A8085
:1027D0000D4B3046C8F820700C49DC60FFF7F8FB61
:1027E00049463046FFF7B2FB094B0A211F640348F4
:1027F000BDE8F84FFFF7AABD302C0020D45C0020C4
:1028000088510020FFFF1000E05A0020292400100A
:1028100000200B4000000B4000487047302C002087
:10282000F8B59DF82070044616461D4637B900F0ED
:1028300087FA864265EB010100295CDB2369EFF32F
:10284000108772B6D3E8CF1F01220029FAD1C3E85E
:10285000412F0029F6D1BFF35F8FB4F902C063693D
:102860000CEB4C01BCF1000F4FEAC10203EBC101BC
:1028700038DB985A4FF0000E60802069C0E88FEF77
:1028800087F310880698C1E90265086107984861D6
:1028900048880130C0F30E00012838BF012048806D
:1028A00040EA0C402169EFF3108572B6D1E8CF7F82
:1028B0000126002FFAD1C1E8476F002FF6D1BFF3F0
:1028C0005F8FA1889952A4F804C02369C3E88FEFF1
:1028D00085F310880122E368217803F501538A40CB
:1028E0005A60F8BD00232269C2E88F3F87F3108841
:1028F0004FF0FF30F8BD3846F8BD00BF0146F0B5D7
:102900000069EFF3108772B6D0E8CF5F0124002D85
:10291000FAD1C0E8454F002DF6D1BFF35F8FB1F972
:1029200002E04C690EEB4E0CBEF1000F4FEACC05F5
:1029300004EBCC0C3DDB605B002648800869C0E8F6
:102940008F6F87F31088BCF80200CCE902230130B6
:10295000C0F30E00012838BF0120059BACF802002F
:10296000CCF81030069B40EA0E40CCF814300B69CE
:10297000EFF3108272B6D3E8CFCF0127BCF1000F7E
:10298000F9D1C3E84C7FBCF1000FF4D1BFF35F8FE6
:102990008B886353A1F804E00B69C3E88F6F82F35F
:1029A00010880122CB68097803F501538A405A60E8
:1029B000F0BD00230A69C2E88F3F87F310884FF00B
:1029C000FF30F0BD03464089B0EB214F37DD586939
:1029D0000A1402EB420210B500EBC2001C69EFF3CF
:1029E000108C72B6D4E8CFEF0122BEF1000FF9D1FE
:1029F000C4E84E2FBEF1000FF4D1BFF35F8F4288C1
:102A000089B292B28A4207D000221B69C3E88F2F95
:102A10008CF31088002010BD42F400424280012156
:102A2000002218699971C0E88F2F8CF310881C78E8
:102A3000DA68084602F50153A140596010BD002034
:102A4000704700BF407870472DE9F041861F41F183
:102A5000FF35B04271EB050338BF002682B038BFA6
:102A6000354604460F4600F06BF9301A65EB01035A
:102A7000012873F1000306DA2046394602B0BDE8AA
:102A8000F04100F099B900F05BF9864265EB010175
:102A900000290ADB0021174B3246009316482B46CB
:102AA0000191FFF72BFF0028E6DB4FF0000C1348E5
:102AB000134A436A9D4204D8816AB142DCD29D42E6
:102AC000DAD11368EFF3108172B6D3E8CF8F5FF0DD
:102AD000010EB8F1000FF8D1C3E848EFB8F1000FCC
:102AE000F3D1BFF35F8F1368C3E88FCF81F31088F2
:102AF00020BFDEE7ED230010302C002000000B404B
:102B0000D45C002010B5044600F01AF94FF47A7333
:102B10004FF0FF3C6FF00042E4FB0301BDE81040C2
:102B2000844572EB01033CBF60461146FFF78CBF42
:102B30002DE9F04306460D4683B0EFF30584E4B279
:102B40003CB1274B586AA8421CD2002003B0BDE814
:102B5000F083244FD7F80C9097F80080484600F097
:102B6000E7F808F1040859F828301B1A301A65EB09
:102B70000101984271F1000111DB20BF184B586A26
:102B8000A842E2D39B6AB34203D3012003B0BDE85D
:102B9000F083401B18BF012003B0BDE8F08300F0B4
:102BA000CFF8864265EB01010029CADB0E4B38469F
:102BB000CDE9003432462B46FFF7A0FE011EC0DDF2
:102BC000074B5A6AAA4208D39B6AB34203D305480B
:102BD000FFF7F8FEB5E7AA42F9D120BFF7E700BF3B
:102BE00000000B40302C0020ED2300102DE9F041B7
:102BF0000446DDE9071552EA030070D0002B1646A3
:102C00001F4671DB0698C5E900232861AC60696145
:102C100000F096F84FF0FF326FF00043801947EB59
:102C20000107824273EB07013CBF1F461046236930
:102C3000EFF3108872B6D3E8CF1F01220029FAD132
:102C4000C3E8412F0029F6D1BFF35F8FB4F90260CA
:102C5000616906EB4603002E4FEAC30C01EBC30388
:102C600046DB31F80C204FF0000E62802269C2E88A
:102C70008FEF88F310885A88C3E902070132C2F344
:102C80000E02012A38BF01221F485A805D61186177
:102C900042EA06422369EFF3108072B6D3E8CF8F81
:102CA0000127B8F1000FF9D1C3E8487FB8F1000F50
:102CB000F4D1BFF35F8FA38821F80C30A68023697D
:102CC000C3E88FEF80F3108801202178E36800FAD1
:102CD00001F103F501535960EA60BDE8F081012676
:102CE000002732463B468DE7564263EB430789E7B0
:102CF00000202369C3E88F0F88F310884FF0FF325C
:102D0000EA60BDE8F08100BF2924001010B4054B33
:102D1000054C064AA04214BF1846581C5DF8044BE7
:102D2000FFF722B85456002000800B4090AF0110EE
:102D30000346416A0A46986A596A8A42FAD170473C
:102D4000034B596A0A46986A596A9142FAD1704708
:102D500000000B4010B4174A536A9C46946A536AA9
:102D60006345FAD1001959414FF0000228BF0122F2
:102D70000346CAB10F4B596A4B1C08BF0B4608D01B
:102D80004FF0FF310B460B48426A8A42FCD38A421D
:102D900007D1084A02E0506A884202D1906A9842FC
:102DA000F9D35DF8044B7047024A526A9142EAD85F
:102DB000EDE700BF00000B40074A536A9942FCD878
:102DC000994207D1044B02E05A6A914202D19A6AB1
:102DD0008242F9D3704700BF00000B4010B50023BA
:102DE00014464FF47A7217F01BFD034BC4E900013F
:102DF00003FB02F2A26010BD40420F00F8B5054689
:102E000006200E4600F096F9002842D0354A364892
:102E1000954214BF4FF080624FF00062334B34494B
:102E200002601A608C6832EA0404FBD12D4B4FF427
:102E30008071EB1AB3FA83F32E4A5B09062022F85D
:102E4000131000F077F9C300B3FBF6F30133DA098E
:102E500020D1402601216962AA622F6BFB0722D490
:102E60002B46002253F82C1F062003F580542260C5
:102E70002F6300F05FF940F2013103228000B0FBC4
:102E8000F6F0EB6A83F0700303F07E03236029639E
:102E9000AA64F8BD4FF6FE718A421BD922464FF64E
:102EA000FF71154ED7E740F2013205F540531A6322
:102EB0006B6AAC6A062004EB831400F03BF90F4BFD
:102EC000A402A3FB0023DB0A0021B4FBF3F0FFF70D
:102ED00041FFC5E7C3F34503114603EB82161A46CB
:102EE000B9E700BF008007400020024000300240E8
:102EF00000000240E45C0020C0FF3F00757B2B8F88
:102F0000F8B5044606200D4600F014F9C300B3FBE3
:102F1000F5F30133DA0908D04FF6FE718A421AD967
:102F200000224FF6FF711B4D01E040250121616237
:102F3000A262266BF30715D42346002253F82C1FF8
:102F4000062003F580531A60266300F0F3F8800032
:102F5000B0FBF5F0F8BDC3F34503114603EB821552
:102F60001A46E4E740F2013204F540531A63636AFB
:102F7000A76A062007EB831700F0DCF8064BBF02B8
:102F8000A3FB0030C00A0021B7FBF0F0FFF7E2FE20
:102F9000D2E700BFC0FF3F00757B2B8F013A053998
:102FA000D200F8B5054642EA411443B1A3F101034A
:102FB000B3FA83F35B0944EA830343F002042E6B04
:102FC000F3070AD42B4653F82C2F624002F06E020E
:102FD00003F580531A602E63F8BD40F2013205F507
:102FE00040531A636B6AAF6A062007EB831700F041
:102FF000A1F8054BBF02A3FB0030C00A0021B7FBBC
:10300000F0F0FFF7A7FEDDE7757B2B8FF8B5066BB9
:103010000546F3074FEA01140AD42B4653F82C2F28
:10302000544004F0100403F580531C602E63F8BD77
:1030300040F2013200F540531A636B6AAF6A062012
:1030400007EB831700F076F8054BBF02A3FB0030B7
:10305000C00A0021B7FBF0F0FFF77CFEDDE700BF00
:10306000757B2B8F00EB400C4FEA8C0C0CF1804CE5
:103070000CF5803CF0B51646DCF80420051FB2F5CF
:10308000803F38BF4FF48032EDB238BFCCF8042017
:10309000012D2AD94FF40067254C0CF540521760DA
:1030A00054F82020B2B9DCF80020012D82EA461243
:1030B00002F0E0020CF5805632602AD94FF400612C
:1030C00044F820304FF480330CF500521160CCF8F6
:1030D0000430F0BD6769B7FBF2FE0EF1010E0EEB96
:1030E0004E0EBEF1030EFCD2DDE70129D2D103243E
:1030F0000CF540521460DCF80820D207FBD5DCF850
:1031000000200B4C82EA461202F0E0020CF58056D9
:1031100032600122DCF800504D4005F003053560B7
:1031200002FA01F1DCF808200A42FBD0C6E700BF32
:103130005C560020014B53F8200070475C5600207D
:1031400030B4114AD2F8A43013F48073FAD10F4985
:103150000F4C09690A25A4FB01414FF0FF3489098E
:10316000C2F88C100849C2F89C50C2F89030C2F8DE
:103170009440C2F8A000D1F8A430DB06FBD530BCE7
:10318000D1F8A80040097047000001405C560020BB
:10319000D34D621070B4039D04682D0345EA0345C6
:1031A0001B4B002CB3FBF1F3B2FBF3F61FDB194A08
:1031B000194B904214BF4FF480424FF40042174C19
:1031C0001A6003F580531A60A36832EA0303FBD147
:1031D000212200F540530433016086601A600268C2
:1031E000002AFCDA0822C5601A6070BC70470368C8
:1031F00003F03F038B42DAD18368C3F30B03B3427E
:10320000D5D1C36803F4EE23AB42D0D1EDE700BFC4
:10321000001BB70000800540002002400000024073
:1032200030B44FF080441C4B1C60E0B11B4CA3F544
:103230004053DC611A4C40F0010044401C6259626A
:1032400098624FF080454FF0E061134B1548164CE3
:103250001D60846019604AB930BC4FF00042A3F58C
:1032600080531A607047114BD861EAE74FF47A73C4
:1032700003FB02F2B2F1807F2ABF6FF07F43134657
:103280001A464FF080410A4C08482360094B4260BF
:1032900030BC1960704700BF00B00D40D3C007B00C
:1032A0002D3FF84F00A00140F3FFFF0100800D40CB
:1032B000D05A002000A00D40012300EB4000800008
:1032C00000F1804000F5841041600360704700BF4A
:1032D000002370B5DB8A04460D46002242E800F266
:1032E000520254BF1021042144F2522098478646CE
:1032F0002B462246F446BDE870400A214FF4817007
:10330000604700BF0023DB8A002242E800F252023D
:1033100001D4102118470421184700BF08B50346FF
:103320000846191E02DB1AB140F03000FFF7D0FF4B
:1033300040F02000FAE700BF034AD2F82838002BFB
:10334000FBD0BFF35F8F704700000E400021044B9D
:10335000044ABFF35F8F43F8041B9342F9D17047CF
:103360000C080E402C080E4010B44FF48D704FF432
:103370002A64064A064B07491460D06019605368F6
:10338000002BFCDA5DF8044B704700BF008004405E
:1033900000A0044000B0FA00704700BF08B5014823
:1033A000FEF7AEFCB4AF011038B5054C054DAC428C
:1033B00004D254F8043B9847AC42FAD338BD00BF5E
:1033C000A0A80110E0A8011038B5054C054DAC428D
:1033D00004D254F8043B9847AC42FAD338BD00BF3E
:1033E000CCA80110E0A8011010B40748074C084B06
:1033F000084A094904601A608B6832EA0303FBD16A
:103400005DF8044B704700BF002002407F3BEFEFA8
:1034100000300240F6FFF30300000240044BDB6C77
:10342000B3F5004F03D14FF48022024BDA647047AA
:1034300000001150002011504FF0E022044BD2F850
:10344000881D0B43C2F8883D10EE3004704700BF62
:10345000030330006FF06041044B054A1960936824
:10346000DB4333F06043FAD1704700BF00300240C5
:103470000000024010B545F25320FFF743FFBDE8BE
:10348000104003460420184710B545F25320FFF7BB
:1034900039FFBDE81040034601201847FEF72ABD5A
:1034A00070B51449144C154D641AA610442E3246BA
:1034B00028BF44222846920013F084FAB4F5867F90
:1034C00013D80F4AC6F1440112D02B19480803EB58
:1034D000C000C3E9002208338342FAD1CB0704D5E8
:1034E00021F00103334445F82320064B9D6070BD55
:1034F0004323F8E700000010100100100000002036
:103500001101001000ED00E0002370B52B4C82B0DB
:10351000C4F88430FFF728FF0122294BDA63636C7B
:10352000012BFCD10321264A244B11639C6B012CF7
:10353000FCD10226052521460523224A2248009671
:10354000FFF728FE21462B46204A21480095FFF729
:1035500021FE0022042031461E4BFFF783FD214649
:10356000284600221C4BFFF77DFD00220820114653
:103570001A4BFFF777FD002209201146174BFFF782
:1035800071FD002206201146134BFFF76BFD002250
:10359000114B07201146FFF765FD0420FFF7CAFD18
:1035A00000240F4BA3FB0035AD0CE0B229460134DB
:1035B000FFF782FE062CF8D102B070BD000001407A
:1035C00000300140002F685900000540008C8647FC
:1035D00000800540001BB70080D1F008006CDC02C1
:1035E00083DE1B4386B003B451FC0804CDE902011D
:1035F00051FC0904CDE9040151EC0A04CDE90601AE
:1036000003BCF047BDE800504EEC00C4BDE80050DC
:103610004EEC01C4BDE800504EEC02C400BD0000F9
:1036200000B5FFF7DFFF02E010FE30F4F8D441EC04
:10363000100443EC112400EE010410EE010480EEAE
:10364000200451EC1004704700B5FFF7CBFF02E0F7
:1036500010FE30F4F8D441EC100443EC112400EED9
:10366000010410EE210480EE200451EC3004704778
:1036700000B5FFF7B7FF02E010FE30F4F8D410B544
:1036800041EC100443EC112451EC040453EC0524E8
:10369000A0FB024C5FF0000EE0FB03CEE1FB02CE8C
:1036A0004CEC20440024E1FB03E444EC30E480EEE5
:1036B000200451EC5004BDE81040704700B5FFF7FE
:1036C00091FF02E010FE30F4F8D441EC100443EC1A
:1036D000112451EC2104A0FB01126FEA820252FB7B
:1036E000100052FB12F252FB1000A0EBD07C53EC06
:1036F00004245CFB13F153EC1524A1FB022001FB15
:10370000030053EC4424A2EB000050FB1CF24FEAF0
:10371000111312EB017043EBE27140EA515020EAC1
:10372000915020F0070053EC7524A0FB023C53ECB1
:10373000752400FB03CC01FB02CC53EC0424ACEB5E
:10374000824C40EA5C70A0F1010041EC400480EE44
:10375000200451EC7004704700B5FFF743FF02E00E
:1037600010FE30F4F8D441EC100480EE220410EE88
:10377000B204704700B5FFF735FF02E010FE30F4E9
:10378000F8D440EC700400EE010410EE210480EE49
:10379000200451EC3004704700B5FFF723FF02E02E
:1037A00010FE30F4F8D440EC600400EE010410EE9A
:1037B000210480EE200451EC3004704700B5FFF77F
:1037C00011FF02E010FE30F4F8D441EC800400EE6A
:1037D000010410EE010480EE400410EE1304704763
:1037E00000B5FFF7FFFE02E010FE30F4F8D441EC24
:1037F000800400EE010410EE010480EE400410EE9F
:103800003304704700B5FFF7EDFE02E010FE30F420
:10381000F8D441EC100443EC112400EE010410EE46
:103820003004C0F30070704700B5FFF7DBFE02E024
:1038300010FE30F4F8D441EC100443EC112400EEF7
:10384000010410EE3004C0F38070704700B5FFF73C
:10385000C9FE02E010FE30F4F8D443EC102441EC31
:10386000110400EE010410EE30F48CBF01200020A2
:10387000704700BF00B5FFF7B5FE02E010FE30F460
:10388000F8D443EC102441EC110400EE010410EED6
:1038900030F42CBF01200020704700BF00B5FFF7B7
:1038A000A1FE02E010FE30F4F8D441EC100443EC29
:1038B000112400EE010410EE30F42CBF0120002092
:1038C000704700BF00B5FFF78DFE02E010FE30F438
:1038D000F8D441EC100443EC112400EE010410EE86
:1038E00030F48CBF01200020704700BF0022002967
:1038F00050DA404261EB4101C9B1B1FA81F30B3BAF
:1039000017D4D3F1200C30FA0CFC9840994051EABE
:103910000C011A44524202F2324201EB025141F0D0
:10392000004140F2FE739A4238BF704721E01146D1
:103930007EE003F1210310FA03FCA3F1010301FA75
:1039400003FCC3F1200320FA03F021FA03F140EA5B
:103950000C00A3EB020202F2324214D050F100003C
:1039600041EB025141F0004140F2FE739A4238BFF0
:1039700070474FF00001A8BFC7F6F0714FF000008C
:10398000704700217047EBD350F1000020F0010098
:10399000E6E70022B9B1B1FA81F30B3B16D4D3F1BB
:1039A000200C30FA0CFC9840994051EA0C011A4462
:1039B000524202F2324201EB025140F2FE739A424D
:1039C00038BF704720E0114600F066B803F12103CC
:1039D00010FA03FCA3F1010301FA03FCC3F1200375
:1039E00020FA03F021FA03F140EA0C00A3EB0202F3
:1039F00002F2324212D050F1000041EB025140F28B
:103A0000FE739A4238BF70474FF00001A8BFC7F657
:103A1000F0714FF00000704700217047EDD350F176
:103A2000000020F00100E8E7002880F235804042E5
:103A3000B0FA80F30B3B11D4984001EB03025242E1
:103A400002F2124200EB025141F000414FF000003F
:103A500040F2FE739A4238BF704713E0C3F100038F
:103A600030FA03FCC3F120029040A3EB010202F202
:103A700012420CEB025141F0004140F2FE739A42B7
:103A800038BF70474FF00041A8BFCFF6F0714FF03C
:103A9000000070470021704760B3B0FA80F30B3B21
:103AA0000FD4984001EB0302524202F2124200EBA3
:103AB00002514FF0000040F2FE739A4238BF704747
:103AC00010E05B4230FA03FCC3F120029040A3EB0C
:103AD000010202F212420CEB025140F2FE739A42D2
:103AE00038BF70474FF00001A8BFC7F6F0714FF024
:103AF00000007047002170470022A2F232425FEAC4
:103B0000215CACF10103A1EB03515B0513F5800FC0
:103B100032D212EB535210D40B2A36DA9140D2F142
:103B2000200330FA03F319439040BCF1000FA8BF03
:103B30007047404261EB4101704720320EDD01FACF
:103B400002F3D2F12002D140D0401843BCF1000F63
:103B5000A8BF7047404261EB41017047524282F377
:103B6000050231FA02F00021BCF1000FA8BF704736
:103B7000404261EB4101704702D0002000217047B4
:103B800050EA013118BF4FF0000C6FF0004101EB1B
:103B9000DC716FEAEC70704738B50446094816F0DE
:103BA0004FFE204612F0FEFE0546064816F034FE93
:103BB0002DB1054B2C449C4201D8284638BD034802
:103BC000FEF79EF8F833002000000820C0AF011077
:103BD00070B504460E460B4816F032FE31462046BC
:103BE00012F072F90546074816F016FE06FB04F4BB
:103BF0002DB1054B2C449C4201D8284670BD03488A
:103C0000FEF77EF8F833002000000820C0AF011056
:103C100038B50446054D284616F012FE204612F02F
:103C2000C9FE2846BDE8384016F0F6BDF83300203E
:103C3000FFF7EEBF9A4238BF88547047704700BF05
:103C40002DE9F04F83B09946DDE90DAB0F9B884617
:103C500011469A07074616D1DA453AD20C460D4668
:103C6000ABEB0A060E4422464B4641462020013467
:103C7000B847B442F7D12946BAF1000F08D120461F
:103C800003B0BDE8F08F0C46BAF1000F10D00E461D
:103C900055460C9B2E449A440191721B4B46013DA4
:103CA00041461AF8010D3446B847002DF5D1019967
:103CB0000F9B9B07E3D5651AAB45E0D922464B46DF
:103CC000414620200135B8475D4504F10104F5D394
:103CD000D5E7BAF1000FDAD10C46D0E72DE9F04F65
:103CE0000F9FDDF824E017F0020F0A9C9DF82C903E
:103CF0000E9DDDE90C8629D1002D6FD1B44225D26D
:103D0000202C07F0010B00F0128104F1FF3C4FF072
:103D1000300AF44401E0202C7AD00134A6420CF899
:103D200001AFF8D8BBF1000F10D0AC420ED2202C5E
:103D300074D004F1FF3C4FF0300AF44401E0202C31
:103D400029D00134AC420CF801AFF8D117F0100FB4
:103D50003AD017F4806F28D11CBBB8F1100F00F0D7
:103D6000CA80B8F1020F00F0D48030248EF80040F1
:103D70000124B9F1000F67D17E0740F1AA802B26FC
:103D80000EF804600134CDE90B57CDE909E4BDE834
:103D9000F04FFFF755BFFC0640F189807C0535D414
:103DA0002024A6426AD0AC4268D0B8F1100F00F0CF
:103DB0008780B8F1020F5AD0202CE4D02646013477
:103DC0004FF0300C0EF806C0202CD2D1CDE90B57A5
:103DD000CDE909E4BDE8F04FFFF732BF17F0010B62
:103DE0003ED0B9F1000F47D117F00C0F44D1B442C7
:103DF0009BD2202C89D1202D10D8FC0657D57C05CC
:103E000055D4202E00F0B980202D10D02024CCE7EE
:103E1000BBF1000F00F0A580202DBCD9FC0646D5D3
:103E20007C0544D4202E00F0A880202D3FD12C46C4
:103E30001F26B8F1100F7FD0B8F1020FC0D14FF09C
:103E4000620C0EF806C0B7E72D260EF804600134A8
:103E5000CDE90B57CDE909E4BDE8F04FFFF7F0BE1F
:103E6000B442BFF473AF202C7FF44FAFD6E7202CC1
:103E700089D026460134E2E7013DB8E7661ED8D175
:103E8000B8F1100F64D0B8F1020F7FF46EAF622664
:103E90008EF80060302644468EF80160B9F1000FBC
:103EA0003FF46AAFD0E7B8F1100F7FF46CAF202475
:103EB000CDE90B57CDE909E4BDE8F04FFFF7C0BEEF
:103EC000BE060ED4202CF2D078260EF80460013401
:103ED00072E73E077FF557AF20260EF804600134E5
:103EE00051E7202CE3D04FF0580C0EEB040686F877
:103EF00000C0013460E7BE0617D558248EF8004094
:103F000030248EF801400224B9F1000F3FF434AFA1
:103F10009AE762248EF8004030248EF80140022493
:103F2000B9F1000F3FF428AF8EE77824F2E7BBF138
:103F3000000F7FF462AF71E717F0200F0CBF4FF056
:103F4000780C4FF0580CA61E0EF806C0013C35E761
:103F5000BC06EAD558248EF8004030248EF8014083
:103F6000DDE717F0100F3FF40EAF17F4806F9AD112
:103F7000202E7FF418AF1F265BE734461F2658E734
:103F800000B9704701F06CBB10B1D1E9003118479E
:103F9000704700BF000000002DE9F04F9FB09DED7D
:103FA000287BDDE92AA558EC177B83461E460D9138
:103FB000109243463A46384641468DED087B2C9C8C
:103FC000FFF724FC002840F0D880384641464FF0E7
:103FD000FF32754BFFF77AFC002840F0CE80384660
:103FE00041464FF0FF326FF48013FFF733FC002897
:103FF00040F0C380DDE908780022384641460023BE
:10400000FFF728FC002840F0C081CDE90A78DDE9FF
:104010000A2390461F4614F4806308BF4FF0060A37
:10402000139304F4006258EA0703119240F0C08031
:10403000002A00F0A2819FED5A7B00278DED0E7BB8
:104040004FF00009BA45CCBFAAEB070A4FF0000AAF
:104050004F46C8BF0AF1FF3A44F480644D4594BF0F
:104060004FF00008A5EB090814F00203119304D0E7
:10407000B9F1000F18BF4FF000083FB1DDE90A01A8
:10408000DDE90E23FFF71EFBCDE90A01DDE908019A
:1040900000220023FFF7DEFB30B1DDE90A01024612
:1040A00001F10043CDE90A239DED0A7BCDE902A889
:1040B000DDF834A024F4006304938DED007B3346D7
:1040C00051465846109A00F097F98046B9F1000F12
:1040D0004FD014F0200F024600F1010433460CBF0C
:1040E000652045205146D84709F1FF3087EAE77C33
:1040F0000DF1580900224B46DFF8B080ACEBE77CAD
:104100004FEAD77E01E0202A10D0E246A8FB0C71CE
:10411000C90801EB8107ACEB47073037BAF1090F4B
:104120008C4602F1010203F8017BECD805230590CF
:10413000069300200A230D9FCDE90330CDE9012E1F
:104140003346224639465846CDF80090FFF7C6FD63
:10415000119B80466BB1109BC41AA54209D94246F7
:104160003346394620200134D847A54208F10108DA
:10417000F5D840461FB0BDE8F08F9DED087B334673
:104180005846109A0D998DED287BCDE92B54CDF82A
:10419000A8A01FB0BDE8F04F00F02EB9AFF300802B
:1041A0000000000000000000FFFFEF7FCDCCCCCC72
:1041B000C7F30A50A0F2FF30FFF7E0FA8AA3D3E971
:1041C0000023FFF759FA8AA3D3E90023FFF72CFA5B
:1041D000C7F31307CDE90E0147F07F514046002297
:1041E0007B4B41F44011FFF733FA6BA3D3E9002373
:1041F000FFF742FA02460B46DDE90E01FFF714FA1B
:10420000FFF7E0FA0746FFF7B9FA65A3D3E9002301
:1042100080468946FFF730FA00226E4BFFF704FA1A
:10422000FFF7D0FA03464946404612935EA3D3E90E
:104230000023FFF721FA804612988946FFF79EFA7D
:104240005BA3D3E90023FFF717FA02460B4640466B
:104250004946FFF7FDF902460B4680468946FFF7BF
:104260000BFA42464B46CDE90E0140464946FFF760
:10427000DBF90022CDE91401DDE90E01564BFFF711
:1042800021FA0022554BFFF7CFF902460B46DDE934
:104290000E01FFF717FA0022514BFFF7C5F902464E
:1042A0000B46DDE90E01FFF70DFA42464B4680460C
:1042B000894600204FF08041FFF7CAF902460B46BD
:1042C00040464946FFF7B0F902460B46DDE91401C6
:1042D000FFF7F8F90022434BFFF7A6F9129B0022E3
:1042E00003F2FF3C4FEA0C53FFF7C6F980468946BC
:1042F000DDE90A0142464B46CDE90E89FFF7AAFAED
:1043000068BB4346494607F16302C62A119A8CBF2F
:104310004FF005094FF00409002A3FF49FAE0B430C
:104320003FF48EAEDDE90A0123A3D3E90023FFF7B2
:10433000B9FA48B1DDE90A0121A3D3E90023FFF767
:1043400089FA00287FF47CAEBAF1000F3FF486AE04
:10435000139B002B3FF482AE0AF1FF3A7EE6002267
:104360001E4B40464946FFF7ADF90A460146034653
:10437000CDE90E12013F1146C5E79FED137B1746AD
:104380004FF004098DED0E7B68E608F100430A97B3
:104390000B933CE6AFF3008061436F63A787D23F86
:1043A00071A379094F930A401655B5BBB16B024012
:1043B000EF39FAFE422EE63F2D431CEBE2361A3F60
:1043C0000000000080842E4100000000000000007A
:1043D0000000F83F0000E03F00002C4000002440B7
:1043E000000018400000F03FFB799F501344D33F7A
:1043F000B3C8608B288AC63F2DE9F04F97B0DDE93E
:104400002089CDE90401DDE9224BCDE906234046B0
:1044100042464B464946DDF890A0FFF7F7F90028E1
:1044200040F0C581404649464FF0FF326FF480139B
:10443000FFF710FA002840F01D81404649464FF032
:10444000FF32C14BFFF742FA002840F0E380B8A3E7
:10445000D3E9002340464946FFF738FA002840F0E8
:10446000CB80B5A3D3E9002340464946FFF7F2F9D4
:10447000002840F0C1804046494600220023FFF753
:10448000E9F9002840F0E0801AF480650D9000F012
:10449000E980092C40F296810EAB1A460C9330212C
:1044A0000023A4F109050133202B02F8011BA4EB22
:1044B000030600F03A81AB42F5D19FED9D7B8DED77
:1044C000087B49464046FFF77DF90446FFF756F959
:1044D00002460B4640464946FFF7BAF8DDE9082395
:1044E000FFF7CAF802460B46CDE90A23FFF77CF92D
:1044F0000746FFF755F902460B46DDE90A01FFF7CB
:10450000A7F802460B46CDE90A2300228F4BFFF79E
:10451000DDF9002800F0DB8001373846FFF740F96D
:10452000DDE90823FFF7BEF908B100270134002EAA
:1045300040F0B1802046FFF721F902460B46404685
:104540004946FFF785F80022804B06460F46FFF7E5
:1045500081F940B93046394600227C4BFFF7B6F965
:10456000002800F015810C9B691E7948194410E061
:1045700080FB0462C3EBA20303EB8302A4EB4204BF
:1045800004F1300201351C4601F8012F002B00F028
:10459000AB80202D4FEAE473EAD10AF00303012B2C
:1045A0001CD1BBF1000F19D00D9B002B40F0F980FE
:1045B0001AF00C0F40F0F580AB4540F2D380202D6F
:1045C0000BD030220C996B1E0B4401355D4503F86E
:1045D000012F00F08D80202DF7D12025DDE9062365
:1045E000DDE904010C9CCDE902BA01950094FFF7C6
:1045F00027FB17B0BDE8F08FCDE92089DDE9062360
:10460000DDE90401CDE923BA229417B0BDE8F04FEB
:10461000FFF7C2BC4F4DCDF88CA00AF0040ABAF1E6
:10462000000F4D4C18BF2C46DDE90623DDE90401DF
:1046300020940CBF03240424CDF888B0219417B033
:10464000BDE8F04FFFF7FCBA4B4642460020002180
:10465000FEF7FEFF01231AF48065804689460D931C
:104660007FF417AF9FED367B0EAB06268DED087BF2
:104670000C9326E70424DDE90623DDE90401374D28
:10468000CDF88CA0CDF888B02095219417B0BDE866
:10469000F04FFFF7D5BA0C9B681EDFF8C4C0184472
:1046A0000DE0ACFB0721C90801EB8102A7EB420238
:1046B0003032092F00F8012F27D90F461D46202D33
:1046C00005F1010306F1FF36EBD120254BE700226F
:1046D000DDE90A011D4BFFF7BDF800287FF427AF85
:1046E000002F5AD1013722E70AF00303012B75D0BE
:1046F000202D3FF473AF0D9BBBB32D2205F1580362
:104700006B4403F8202C013568E7202BDDD0AEB3D5
:104710000C9A1E441544302201E0B3422ED00133DE
:10472000202B05F8012FF8D1CFE71D46C5E600BFC5
:104730000000000065CDCD410000000065CDCDC179
:104740000000000080842E41FFFFEF7F0000E03F6B
:10475000676666660CB0011014B001101CB0011041
:10476000CDCCCCCC202D3FF439AF1AF0040F0DD1B5
:104770001AF0080F3FF432AF2022BFE72E2103F1D9
:1047800058026A4402F8201C5D1CECE62B22B5E7B7
:10479000E3077FF5E8AE0134E5E6FA077FF5C7AE3B
:1047A000A0E70BF1FF3BAB453FF609AFA0E70324C1
:1047B000DDE90623DDE904010A4DCDF88CA0CDF832
:1047C00088B061E7084B264603EBC40393ED007BFA
:1047D0000EAB8DED087B00250C9372E6BBF1000F4C
:1047E00086D0E1E618B0011060B901102DE9F04F54
:1047F0009A469BB0249C964D0B94964C0B1E18BF6A
:10480000834625609AF80000934C0A9308BFA3469C
:104810000992002800F0BC824FF000090AE04A46E5
:10482000099B0A9909F10109D8479AF80000002864
:1048300000F0CE8025280AF1010AF0D1002352466B
:1048400012F8010BA0F1200110290AD8DFE801F0CD
:104850004009093C09090909090909380934090904
:104860003000A0F13001092940F28C802A2800F0A4
:10487000F58000210C912E2800F099800027A0F1EE
:10488000680112292DD8DFE811F057012C005101E1
:104890002C0045012C002C002C002C002C002C009E
:1048A0002C0027002C002C002C002C002C002700B2
:1048B000924643F00103C2E7924643F00203BEE78B
:1048C000924643F00403BAE7924643F01003B6E77A
:1048D000924643F00803B2E79AF8010043F480736C
:1048E00001326728924600F28280242840F2C68076
:1048F000A0F12502422A00F2C180DFE812F05F0138
:10490000BF00BF00BF00BF00BF00BF00BF00BF00AF
:10491000BF00BF00BF00BF00BF00BF00BF00BF009F
:10492000BF00BF00BF00BF00BF00BF00BF00BF008F
:10493000BF00BF00BF00BF00BF00BF00BF00260117
:1049400045012601BF00BF00BF00BF00BF00BF0080
:10495000BF00BF00BF00BF00BF00BF00BF00BF005F
:10496000BF00BF00D301BF00BF00BF00BF00BF003A
:10497000BF00BF00BF00BF00D3016701D301260104
:1049800045012601002100E0013201EB810100EB2D
:10499000410110789246A0F13004092CA1F13001B8
:1049A000F2D92E280C9102F101027FF467AF9AF838
:1049B00001001146A0F13006092E43F4806340F255
:1049C00031812A2800F03E8192460027013256E7C5
:1049D0004C46099B994501D303F1FF394A46002013
:1049E000099B0A99D84720461BB0BDE8F08FA0F17B
:1049F0006902D2B20F2A41D8012649F241019640FC
:104A00000E4040F001810A2A3FD0072A36D10B9C84
:104A100054F8042B002A00F0288143F021010DF105
:104A2000480E704603E0202E00F029811A4602F05D
:104A30000F052B46092D94BF303337330F2A00F86A
:104A4000013B06F101064FEA1213ECD817E100BF53
:104A5000ED470010CC5A00203D3C00100B9C9AF80A
:104A6000010054F8045B9246002DBDBF694243F03B
:104A700002030C910C950B940132FCE64A46099B0B
:104A80000A9909F10109D847CFE60B9951F8048B2F
:104A900098F800201046002F40F0E18072B16FF0CE
:104AA000010C0CF1010C4646C44401E0664503D0FC
:104AB00016F8014F002CF9D1A6EB080613F4806C10
:104AC00002D0BE4228BF3E4613F0020400F08781A8
:104AD000002A00F02B81BCF1000F00F041810B9403
:104AE0000D964A46DDE909540E464F4408E02B4630
:104AF0002146D84718F8010F09F1010910B14A46BB
:104B00004F45F4D131460B9C0D9E002C40F00E8198
:104B10000B918AE69AF801006C287FF4DFAE9AF8D0
:104B2000020043F440730AF10302DAE69AF8010046
:104B300043F400730132D4E69AF80100682800F0CB
:104B4000208143F080030132CBE6672800F0E78044
:104B5000472800F00081452800F0FF800B9C04935B
:104B60000C9B0734CDE9027324F007031C46DDE9F2
:104B70000931F4E802674A465846CDE900670B94CC
:104B8000FFF70AFA814650E646280B9C08BF43F01F
:104B9000200304930C9B0734CDE9027324F0070330
:104BA0001C46DDE90931F4E802674A465846CDE97A
:104BB00000670B94FFF720FC814636E64A46252025
:104BC000099B0A9909F10109D8472EE60B9A9C071F
:104BD00002F1040709F1010640F1E6801078099B13
:104BE0004A460A99D8470C9B012B40F22C81DDE9FB
:104BF0000954994432462B46214620200136D84795
:104C00004E45F7D10B9710E66F2800F08B8040F2ED
:104C10006581782800F008814FF00A0823F010031E
:104C2000C44647E0002707EB870700EB4700A0F1E9
:104C3000300711F8010FA0F13002092AF3D98A4692
:104C40004A1C1CE60B9C9AF8020054F8047B0AF1FB
:104C5000020A0AF101020B9427EAE7770FE6002A1D
:104C60003FF42CAF07F1FF3C1BE723F0100113F4D6
:104C7000806241F021013FF4D2AE0DF1480E0823CD
:104C80001020059300234A46CDE90230069158468C
:104C9000DDE90931CDE900E60497FFF71FF80B9431
:104CA0008146C2E5582879D0622840F051824FF001
:104CB0000208C44613F480606DD123F00C0313F492
:104CC000007240F0C2800B9904310D9113F4807191
:104CD00040F02E825E060B9A40F1AA801278002ADC
:104CE00040F0DA8023F01003002800F0D580114650
:104CF0000DF1480E06930C9BCDF80CC0CDE9047362
:104D0000019100234A4602935846DDE90931CDF866
:104D100000E0FEF7E3FF0D9B81460B9385E543F42E
:104D200000631BE74FF00808C446C3E70C9B4C46E2
:104D3000B3427FF6EDAE0F464B44A3EB0609DDE927
:104D4000096522463346294620200134D8474C4580
:104D5000F7D13946DCE643F4006343F02003FDE677
:104D60000F460B94DDE909544A462B462146D847A5
:104D700018F8010F09F101090028F5D139460B9CFB
:104D8000C3E69AF8020043F0C0030AF10302A8E563
:104D9000044681461DE623F00D0390E74FF010080E
:104DA00043F02003C44685E70C9B012B45D9DDE980
:104DB00009544E4609F1FF38984432462B462146A5
:104DC00020200136D8474645F7D10C9B32469944FE
:104DD0000B9B1878DDE90931D8470B9725E50C9B2B
:104DE000B34240F2EE81CDE90D48DDE90954884631
:104DF0004B449E1BCDF82CC04A462B462146202012
:104E000009F10109D847B145F6D14146DDF83880AE
:104E10000C9BDDF82CC00D9C98F800205E1C104601
:104E2000002A7FF458AE73E64FF01008C44641E7FD
:104E30001D064CBF1288126851E713464A4618787F
:104E4000DDE90931D847B146DCE60B9C073424F094
:104E500007042246656852F8084B0B9254EA050293
:104E600040F02C8123F01003002800F02781002659
:104E70000DF1480E06930C9B4A46CDE904730023BE
:104E8000CDE900E6CDF80CC002935846DDE90931C2
:104E9000FEF724FF8146C8E413F0200F14BF412021
:104EA00061200DF1480E7646A0F10A0803E02029A2
:104EB0003FF420AF2246B2FBFCF40CFB1425E8B211
:104EC000092D00F130058ABF4044E8B2C0B2624506
:104ED00006F8010B01F10101E9D20BE723F0100202
:104EE00069280D9240F06F8113F4806204D04FF472
:104EF000806223F011030D930D9B13F4007640D1D3
:104F00000B9B03F104080D9B13F4807040F0988014
:104F1000590640F1C6800B9B19780C46CB0F00292F
:104F200000F0B98022460DF1480E74461646DFF8AF
:104F3000A0C201E020280FD03546ACFB0621C908ED
:104F400001EB8102A6EB42023032092D0E4600F140
:104F5000010004F8012BEDD80D9ACDE9010306926A
:104F60000C9ACDE904720A234A4603935846DDE9B8
:104F70000931CDF800E0FEF7B1FECDF82C80814676
:104F800053E40B9C073424F0070421460846636869
:104F900050F8081BDC0F0B9051EA030000F0C380AF
:104FA0000A46191E48DB13460DF1480EF44600264A
:104FB000CDE90E94DFF8188201E0202E2DD05A188A
:104FC00042F10002A8FB025929F0030505EB9905FF
:104FD000521B1C469B1A61F1000508464FF0CC316C
:104FE00001FB03F108FB0511A3FB0853194405233A
:104FF00005F00109A9FB03399B180A2C03F13003C2
:105000004FEA550570F100000CF8013B06F101066E
:1050100045EAC1734FEA5101CFD2DDE90E940D9BF1
:105020004A4606930C9BCDE90164CDE904730A233B
:10503000CDF800E0039328E7524261EB4101B2E76B
:105040000B9B1968CB0F002900F0AB8081EAE1725D
:10505000A2EBE1720DF1480E7046DFF874C101E079
:10506000202E10D01546ACFB0241C90801EB81048B
:10507000A2EB440404F13002092D00F8012B06F1E3
:1050800001060A46ECD80D9ACDE9016306920C9A06
:10509000CDE9047267E7002A3FF445AF0DF1480EF1
:1050A0005AE713F0800F0B9B00F08180B3F90010DA
:1050B00081EAE174A4EBE174A4B22FE713F0200FAE
:1050C00014BF412261220DF1480E0A3ACDE90D9735
:1050D000CDF844B000267746F3469146CDE90F3C23
:1050E00003E0202E17D004460D46294642460023F1
:1050F000204615F08DFBD2B2092A02F1300388BF99
:1051000002EB09034445DBB275F1000507F8013BEA
:1051100006F10106E5D2DE46DDE90D97DDE90F3C3B
:10512000DDF844B0A6E6002A47D1134611463BE716
:105130000B990968A1B923F0100388B10DF1480E4D
:1051400006930C9BCDF80CC0CDE904730192D8E511
:1051500013F480627FF4CBAE23F010030D93CBE603
:1051600013F0200F14BF412061200DF1480E764648
:10517000A0F10A0802E0202AE2D02146B1FBFCF4AB
:105180000CFB1415E8B2092D00F130058ABF40442C
:10519000E8B2C0B2614506F8010B02F10102EAD2A1
:1051A000CEE7002A3FF456AF0DF1480E6BE71968C1
:1051B00081EAE174A4EBE174B0E600260DF1480E3B
:1051C0002DE701362BE64FF00A081346C44671E579
:1051D000CDCCCCCC84460CB410B584B006AC54F81D
:1051E000043B0A460094614604480394FFF7FEFA24
:1051F00004B0BDE8104002B0704700BF353C00105D
:1052000030B594468E4605461C4683B02946724604
:10521000634600940248FFF7E9FA03B030BD00BFCF
:10522000353C001070B594461E4605460C4684B0C9
:105230004FF0FF32634602A900960348CDE90254BD
:10524000FFF7D4FA04B070BD893F00100FB410B559
:105250000E4B84B006A91C6851F8043B03915CB165
:1052600000914FF0FF3202A90948A047012004B085
:10527000BDE8104004B07047184600F033FA2046ED
:1052800004B0BDE8104004B0704700BFCC5A002005
:10529000813F001010B5094B84B01C684CB1034627
:1052A00000914FF0FF3203A90548A047012004B048
:1052B00010BD00F017FA204604B010BDCC5A0020F3
:1052C000813F001000BEFDE7074A0346106838B171
:1052D000064903448B428CBF4FF0FF301360704788
:1052E000034908461160F3E7B85600200000082083
:1052F000145D0020002070474FF0FF30704700BF62
:1053000003460846114623B9034BD3E9002300F0B6
:105310004FB94FF0FF30704700B90110431E012B09
:1053200009D810B51446084601230022214600F092
:10533000C7F8204610BD4FF0FF3070474FF0FF30E8
:10534000704700BF4FF0FF30704700BF08B5FFF750
:10535000B9FF00BF9C46144600B50B4602466146A5
:1053600083B044B1054D064801940095FFF76EFFE8
:105370000120FFF7A7FF034D2C46F4E724B00110EE
:1053800034B001104CA9011038B5064C064DFEF79B
:105390000BF8AC4204D254F8043B9847AC42FAD321
:1053A00038BD00BFE0A80110F8A801100368084646
:1053B00011461847437D2DE9F04781460F461646B2
:1053C000002B43D0002A3BDD037D00204D1E01460B
:1053D00015F8012FDFF884800A2A01F101040ED0AC
:1053E000A6421CD02B782146A3F10D03B3FA83F318
:1053F00015F8012F5B090A2A01F10104F0D1002BF5
:10540000EED18142A1EB000138441BDC0221404671
:10541000D9F800309847A64208D02046E2E78642F5
:1054200004DD311AD9F8003038449847374417F86A
:10543000013CA3F10D03B3FA83F35B0989F814303F
:10544000BDE8F087D9F800309847DFE73846D9F84B
:1054500000301146BDE8F047184700BFB0B9011051
:105460000B682DE9F041802B0D46064605D05A1CED
:105470002B442A601E71BDE8F0810F4B1C68A4B15B
:105480000E4F01F1040801E0246974B12368002B78
:10549000FAD03B680BB1A342F6D1204641462A68B8
:1054A000FFF788FF2469002CF0D1002301222B4450
:1054B0002A601E71BDE8F081AC560020B456002071
:1054C0002DE9F04782B00D46924699460746FDF712
:1054D00037FC4FF0FF366FF000442F4A821841F13D
:1054E0000003964274EB03013CBF324623462B482F
:1054F00015F0B2F96B1C804603D1384611F028FF35
:105500000546274B274E1C68274BB9F1000F18BFE3
:105510001E46B4B1BAF1000F1AD1DFF8909001E045
:10552000246974B12368002BFAD0D9F800300BB18C
:105530009C42F5D120462A463946B0472469002CC2
:10554000F0D1B8F1000F1FD1284602B0BDE8F087B6
:105550004FF00A0ADFF8549002E02469002CF0D0E2
:105560002368002BF9D0D9F800300BB1A342F4D155
:105570002A4639462046B047012220460DF1070150
:105580008DF807A0B047E8E7044815F045F928462C
:1055900002B0BDE8F08700BF40420F000034002099
:1055A000AC560020AD530010B5530010B456002087
:1055B0002DE9F04F984607460E4683B0DFF860B0FD
:1055C000DFF86090DFF860A00192DBF8004014B9CA
:1055D00011E024697CB1D9F800500DB1A542F8D191
:1055E000A268002AF5D03146384690470028F0DD01
:1055F00003B0BDE8F08FDAF8242090450BD8DAF834
:105600002810019B994204D36FF0010003B0BDE85C
:10561000F08F9045F8D101200021FDF79BFBD4E7E6
:10562000AC560020B456002000000B400A4A136814
:105630004BB1834202D109E0984207D003F1100236
:105640001B69002BF8D101B1106070470029FCD113
:105650000369136001617047AC56002000F0E0BAA6
:10566000F0B583B006468DF80700FDF769FB4FF0F3
:10567000FF356FF00044174A821841F1000395424C
:1056800074EB03013CBF23462A46134815F0E4F8A7
:10569000124B07461C689CB1114D01E024697CB196
:1056A0002368002BFAD02B680BB19C42F6D1204620
:1056B00001220DF10701FFF77DFE2469002CEFD1D7
:1056C00017B9304603B0F0BD034815F0A5F83046D1
:1056D00003B0F0BD40420F0000340020AC56002063
:1056E000B456002038B5044611F032FE01230546B9
:1056F0001A4620462946FFF7E3FE084B1C682CB1EA
:1057000063682BB198472469002CF9D1284638BD2D
:105710002469002CF4D1284638BD00BFAC560020C7
:105720002DE9F041A2B004460D46FDF709FB4FF00C
:10573000FF376FF00046274A821841F10003974275
:1057400076EB03013CBF3A463346234815F084F814
:1057500000262B4607462246204801A90196FFF75E
:1057600061FD019B06467BB91D4B1C682CB163682B
:1057700043B198472469002CF9D10FBB304622B0C1
:10578000BDE8F0812469F1E7DFF85480D8F80050D3
:10579000EDB1144C01E02D6975B12B68002BFAD0E6
:1057A00023680BB1AB42F6D12846019A02A9FFF754
:1057B00001FE2D69002DF0D1D8F800400195D5E704
:1057C000054815F029F8304622B0BDE8F081019572
:1057D000D3E700BF40420F000034002061540010A6
:1057E000AC560020B45600200FB400B583B004A915
:1057F00051F8040B0191FFF793FF03B05DF804EB40
:1058000004B07047704700BF0022014B1A70704708
:10581000085D00204B79FF2B0BD1887948B9CB79F3
:10582000012B07D1082A05D9034B8A7809201A7061
:1058300070470020704700BF085D002001207047BE
:10584000012901D00120704708B5104B91881B78C1
:10585000994201D0002008BD5378012B08D0022BBB
:10586000F8D1002164220846FDF7DAFC012008BDCA
:105870005188CB054BBF4A0A4A0A10464FF0FF3009
:1058800002F0010201F07F01FDF748FD085D0020F4
:10589000004870477CBA0110012907D15378012BC9
:1058A00002D19388072B03D0002070470120704756
:1058B0001146A623014A01F02FBA00BFD4B9011046
:1058C0000346012201481A70704700BFB4B90110A5
:1058D00008B50B68B3F5966F00D008BD00224FF0F5
:1058E000FF301146FDF71AFD024A034B10601960A4
:1058F000704700BF485600204C560020184B70B52A
:105900001A68002A28D0EFF3108172B6D2E8CF4F80
:105910000120002CFAD1C2E8440F002CF6D1BFF3CD
:105920005F8F00220F4C186859602270C0E88F2FDB
:1059300081F31088002400250B4E3078FCF71CFB07
:1059400020B9002400252046294670BD3078FCF798
:1059500023FB2046294670BD4FF47A740025EBE7FF
:10596000D85A00200F5D00200A5D0020014B1878F6
:10597000FCF712BB0A5D002038B5044600200D4636
:1059800001F0ECFAA8B3002001F0FEFA88B3FDF7AD
:10599000D7F94FF0FF3E6FF0004C174A821841F1E3
:1059A000000396457CEB03013CBF724663461348F7
:1059B00014F052FFE8B1002001F0D0FA58B90021EC
:1059C0004FF0FF3000F000FD6FF002040B4814F0C0
:1059D00023FF204638BD002001F0D6FA0028EED083
:1059E00021462A46002001F0DBFA04460028EDD1CA
:1059F000EAE76FF00204ECE740420F00D85C0020B9
:105A000008B5FDF79DF94FF0FF3E6FF0004C0F4ACF
:105A1000821841F1000396457CEB03013CBF7246BE
:105A200063460B4814F018FF70B14FF0FF300021AF
:105A300000F0CAFC002001F0FBFA0028F5D1BDE817
:105A40000840034814F0E8BE08BD00BF40420F0004
:105A5000D85C00202DE9F84307460E46FDF770F9A3
:105A60004FF0FF356FF00044334A821841F10003D4
:105A7000954274EB03013CBF2A4623462F4814F09D
:105A8000EBFE08B9BDE8F883002001F067FA0028B2
:105A900048D0002E41DD0025DFF8A480DFF8A49077
:105AA00013E02246002001F009FB002104464FF0DC
:105AB000FF3000F089FC002001F0BAFAFDF740F950
:105AC000C8E900012544AE4227DD002001F016FBA5
:105AD000741B8442A8BF04467919002CE1D12146E9
